S01000004D55585F546573742E737265631B
S11300000C94AA000C94C7000C94C7000C94C7006D
S11300100C94C7000C94C7000C94C7000C94C70040
S11300200C94C7000C94C7000C9427090C94C700C7
S11300300C94C7000C94D3090C94FF090C94C700CA
S11300400C94C7000C94C7000C94C7000C94C70010
S11300500C94C7006F0515052F062F062F062F06D3
S11300602F062F062F062F062F062F062F062F06E4
S11300702F062F062F062F062F062F062F062F06D4
S11300802F062F062F062F062F062F062F062F06C4
S11300902F062F062F062F062F069D0518051F0570
S11300A0410551052F06A4052F062F062F062F06FE
S11300B0D1052F062F062F062F0606061406EA057D
S11300C02206890692067006C606CF0670067006DA
S11300D07006700603070C0770067006700670063B
S11300E042074707600765077E07830770067006A7
S11300F0700670067006700670067006700670064C
S11301009C07AD07BD07D4070308320861089008AF
S1130110BF08EE08427566666572206F7665726682
S11301206C6F77206572726F723A20005541525499
S1130130204F76657272756E204572726F723A2026
S11301400055415254204672616D65204572726FAC
S1130150723A200011241FBECFE5D8E0DEBFCDBF28
S113016010E0A0E6B0E0E0E2F5E102C005900D92F7
S1130170AA3CB107D9F721E0AAECB0E001C01D9276
S1130180AD35B207E1F70E9434060C948E0A0C9444
S11301900000FC012081FB013081321718F4208318
S11301A0FC012083089540E050E070E060E00FC05F
S11301B0F901E80FF91FE45EFE4F108201968830C2
S11301C09105B1F74F5F5F4F4830510551F0872FCC
S11301D0962F9A01220F331F220F331F220F331F32
S11301E0E7CF089528E0829FC0011124FC01E60FA7
S11301F0F11DE45EFE4F40830895CF9321E030E08B
S1130200F90102C0EE0FFF1F6A95E2F7BF01CE2F7E
S1130210609520E030E0A1E0B0E050E0F8E08F9F8E
S1130220C0011124FD01022E02C0EE0FFF1F0A942B
S1130230E2F7E423F5231E161F064CF4FC01E20F3B
S1130240F31FE45EFE4F70817C2B708308C0FC01B9
S1130250E20FF31FE45EFE4F7081762370832F5FFD
S11302603F4F28303105F1F6CF910895883038F4A6
S1130270683038F481E0483028F080E0089580E068
S1130280089580E008951F93CF93DF93C82F162F0E
S1130290D42F0E9436018823A1F0E12FF0E088E0FA
S11302A0D89FE00DF11D1124E45EFE4F408121E052
S11302B030E0C90102C0880F991FCA95E2F7842B68
S11302C08083DF91CF911F9108951F93CF93DF9384
S11302D0C82F162FD42F0E9436018823A9F0E12FAE
S11302E0F0E088E0D89FE00DF11D1124E45EFE4F9C
S11302F0408121E030E0C90102C0880F991FCA95EE
S1130300E2F7809584238083DF91CF911F91089534
S11303101F93CF93DF93C82F162FD42F0E9436013B
S11303208823A1F0E12FF0E088E0D89FE00DF11DD3
S11303301124E45EFE4F408121E030E0C90102C097
S1130340880F991FCA95E2F784278083DF91CF91A4
S11303501F910895883028F571E001C0770F8A95C0
S1130360EAF740E050E0B0E0A0E011C0F901E80F86
S1130370F91FE45EFE4F6081672B6083019688302D
S11303809105A1F74F5F5F4F4830510551F08B2F16
S11303909A2F9A01220F331F220F331F220F331F6C
S11303A0E5CF0895883050F521E030E0A90102C07E
S11303B0440F551F8A95E2F7742F709540E050E082
S11303C0B0E0A0E011C0F901E80FF91FE45EFE4FB0
S11303D0608167236083019688309105A1F74F5FA0
S11303E05F4F4830510551F08B2F9A2F9A01220FFD
S11303F0331F220F331F220F331FE5CF0895883098
S1130400A8F420E030E090E04FEFF901EE0FFF1F79
S1130410EE0FFF1FEE0FFF1FE80FF91FE45EFE4F04
S113042040832F5F3F4F2830310579F70895883096
S1130430A0F420E030E090E0F901EE0FFF1FEE0F92
S1130440FF1FEE0FFF1FE80FF91FE45EFE4F10823F
S11304502F5F3F4F2830310579F708958830A8F48D
S113046020E030E090E0880F991F880F991F880FD3
S1130470991F4FEFFC01E20FF31FE45EFE4F408330
S11304802F5F3F4F28303105A9F708958830A0F435
S113049020E030E090E0880F991F880F991F880FA3
S11304A0991FFC01E20FF31FE45EFE4F10822F5FE1
S11304B03F4F28303105A9F708956F5F2FEF30E0E3
S11304C0A90102C0440F551F6A95E2F7BA0160956D
S11304D0A90102C0440F551F8A95E2F7CA01862379
S11304E00895BF92CF92DF92EF92FF920F931F93E2
S11304F0CF93DF9300D000D000D0CDB7DEB789838F
S11305006A834B832C830D83EE82BE016C5F7F4F25
S1130510CE0101960E94C900BE016B5F7F4FCE01E0
S113052002960E94C900BE016A5F7F4FCE01039606
S11305300E94C9000B81EE80E01610F1FA801D8143
S1130540BC80C980DF2C1F15C0F06B2D8C2D0E9440
S11305505D029D2D202F30E0220F331F220F331F09
S1130560220F331FF901E90FF11DE45EFE4F4081B4
S1130570482B40839F5F1917A8F70F5FE01618F701
S113058026960FB6F894DEBF0FBECDBFDF91CF9194
S11305901F910F91FF90EF90DF90CF90BF9008953F
S11305A04F925F926F927F928F929F92AF92BF927F
S11305B0CF92DF92EF92FF920F931F93CF93DF932B
S11305C000D000D000D0CDB7DEB789836A834B83D7
S11305D02C830D83EE82BE016C5F7F4FCE010196AA
S11305E00E94C900BE016B5F7F4FCE0102960E943C
S11305F0C900BE016A5F7F4FCE0103960E94C90005
S11306007B806E80671408F445C0AA80CD809980F1
S11306108C8081E090E09C01082C02C0220F331FE3
S11306200A94E2F7092C02C0880F991F0A94E2F792
S1130630522E582AB72C4A2CCA1448F1D42CEB2C2D
S1130640F12CEE0CFF1CEE0CFF1CEE0CFF1CDA145C
S113065031F0CD1421F0B71411F06B100DC00D2D35
S113066010E0682D892D0E945D02F801EE0DFF1D3A
S1130670E45EFE4F808308C0F701ED0DF11DE45EDA
S1130680FE4F808185298083D394CD1400F7B394E1
S11306906B1490F626960FB6F894DEBF0FBECDBF4E
S11306A0DF91CF911F910F91FF90EF90DF90CF904A
S11306B0BF90AF909F908F907F906F905F904F907E
S11306C00895DF92EF92FF920F931F93CF93DF93DE
S11306D000D000D000D0CDB7DEB789836A834B83C6
S11306E02C830D83EE82BE016C5F7F4FCE01019699
S11306F00E94C900BE016B5F7F4FCE0102960E942B
S1130700C900BE016A5F7F4FCE0103960E94C900F3
S1130710EB80F12CDA800D2D10E06C8189810E9430
S11307205D02A701440F551F440F551F440F551F69
S1130730FA01E00FF11FE45EFE4F80839D81292FB3
S113074030E0420F531FFA01E45EFE4F80834E8176
S113075050E0440F551F440F551F440F551F040FFD
S1130760151FF801E45EFE4F8083240F351FF90145
S1130770E45EFE4F80839D15C0F04B816D2D898111
S11307800E9443014E816D2D89810E9443014B815A
S11307906D2D8C810E9443014E816D2D8C810E94B0
S11307A04301D3948D818D1540F71B818E81811770
S11307B0C0F0412F6A8189810E944301412F6D81DC
S11307C089810E944301412F6A818C810E944301E7
S11307D0412F6D818C810E9443011F5F8E8181179F
S11307E040F726960FB6F894DEBF0FBECDBFDF915B
S11307F0CF911F910F91FF90EF90DF90089528E023
S1130800829FC0011124FC01E60FF11DE45EFE4F3E
S11308108081089528E0829FC0011124FC01E60F25
S1130820F11DE45EFE4F4083089568BB000021E0A3
S113083030E0A90102C0440F551F8A95E2F745BB79
S1130840000015BA000008950F931F93CF93DF9310
S1130850E091CA00F091CB00309711F081E0099546
S11308609798939A82B38F7882BB8091CC0090E062
S11308700196877090788093CC008091CC00811190
S113088050C0E091CA00F091CB00309709F449C000
S1130890099547C0C8010C2E02C0880F991F0A94FD
S11308A0E2F7807F992718161906A4F48091CC00EA
S11308B0FE0138E0839FE00DF11D1124E45EFE4F3C
S11308C0808198E08795661F9A95E1F78C2F0E94A6
S11308D015040EC08091CC00FE0198E0899FE00DC4
S11308E0F11D1124E45EFE4F60818C2F0E941504DB
S11308F02196C830D10571F618BA22B38091CC0084
S113090030E1839FC0011124822B82BB9398979A74
S1130910E091CA00F091CB00309741F082E0099554
S113092005C0C0E0D0E001E010E0B4CFDF91CF918A
S11309301F910F91089587700E94150418BA0895A5
S113094018BA00008FEF85BB0000000015BA000044
S113095018BA08958FEF87BB18BA84BB15BA81B350
S1130960886F81BB9798939A82B38F7882BB0E94D9
S1130970A00408959798613069F492B39F7892BB6C
S113098022B3877030E1839FC0011124822B82BB84
S1130990979A0895979882B38F7882BB08958F7041
S11309A08A3010F0895C0895805D0895CF93DF93B9
S11309B00E94380AEC018827892B11F48C2F19C066
S11309C0D0FD14C0D4FF04C081E491E00E94760AF3
S11309D0D3FF04C08CE291E00E94760AD1FF08C0E4
S11309E084E191E00E94760A80E003C080E001C0C7
S11309F080E0DF91CF9108950E94380A9C0122275C
S1130A0021153140C9F308950F931F93CF93DF93BA
S1130A100E94D60490E0FC01FF97E733F10508F04B
S1130A201EC1E65DFF4F0C94880A10E000E07FC011
S1130A300E94A00487E690E00E94670A10C10E9409
S1130A40FC04C82F0E94FC04682F8C2F87708093AD
S1130A50D2006093CF000E949B0483E990E00E943F
S1130A60670A8091D2000E94560A88E990E00E94A9
S1130A70670A8091CF000E94560A8AE00E94560AB3
S1130A80EEC00E94FC04811106C0939A81EA90E0B2
S1130A900E94670AE4C0939887EA90E00E94670A7C
S1130AA0DEC00E94FC04982F92959F709093D3000F
S1130AB080FF05C061E0892F0E94BA0404C060E091
S1130AC0892F0E94BA0481E790E00E94670A80910E
S1130AD0D3000E94560A8AE00E94560AC0C089E7E1
S1130AE090E00E94670A8091D4000E94560A8AE02E
S1130AF00E94560AB4C06C2F812F0E94FF03D82F86
S1130B0082958F700E94CF040E94560A8D2F0E94F6
S1130B10CF040E94560A80E20E94560ACF5FC83072
S1130B2051F78AE00E94560A1F5F183011F0C02F57
S1130B30E2CF8AE00E94560A92C00E94D3008DEA56
S1130B4090E00E94670A8BC00E94FC04C82F0E9498
S1130B50FC04482F8C2F82958F708093D3006C2FC8
S1130B606F706093D1004093CF000E940A0480EC20
S1130B7090E00E94670A8091D3000E94560A8AE39B
S1130B800E94560A8091D1000E94560A8AE30E946C
S1130B90560A8091CF000E94560A8AE00E94560AA3
S1130BA05EC00E94FC04882319F0813021F006C045
S1130BB01092CE0003C081E08093CE0085EC90E0DB
S1130BC00E94670A8091CE000E94560A8AE00E9421
S1130BD0560A45C00E94FC048093D400811102C0CF
S1130BE00E94D3008091D400803221F40E94FC043E
S1130BF08093CD0089E790E00E94670A8091D40039
S1130C000E94560A8AE00E94560A29C00E94FC04E7
S1130C10C82F0E94FC04D82F0E94FC04482F6D2F7B
S1130C208C2F0E9465011BC00E94FC04C82F0E94E7
S1130C30FC04D82F0E94FC04482F6D2F8C2F0E9497
S1130C4043010DC00E94FC04C82F0E94FC04D82F4D
S1130C500E94FC04482F6D2F8C2F0E948801DF9185
S1130C60CF911F910F9108952FEF82E597E02150C6
S1130C7080409040E1F700C000000E94AA0460E0B8
S1130C8080E00E94BA040E94160987E690E80E9458
S1130C90240A78948EE790E00E94670A412C512C34
S1130CA0612C712C812C912C6894222422F80F2E13
S1130CB0FBEAAF2EF02D0F2EF1E2BF2EF02D0F2EFA
S1130CC0F5E1CF2EF02D0F2EF3E1DF2EF02D0F2EB8
S1130CD0F1E1FF2EF02D332433941BE0D5E0C2E084
S1130CE00E94040580915C0180FF07C08091CE00C2
S1130CF081110E9424040E94C7098091D40090E0CD
S1130D00FC013197E132F10558F7EF59FF4F0C948C
S1130D10880A1092D3001092D1001092CF00C09391
S1130D20D400DECF80915C0184FFDACF8091CF00C4
S1130D308F3FE9F41092CF0040E06091D1008091A0
S1130D40D3000E94F2008091D1008F5F883018F4A4
S1130D508093D1000CC01092D1008091D3008F5F9A
S1130D60883018F48093D30002C01092D3004091CD
S1130D70CF00440F41604093CF006091D100809137
S1130D80D3000E94F2000E94CD09AACF1092D30092
S1130D901092D0001092CF00D093D400A1CF8091B4
S1130DA05C0184FF9DCF8091CF008F3FE9F41092C6
S1130DB0CF0040E06091D0008091D3000E94FD00FC
S1130DC08091D0008F5F883018F48093D0000CC0DD
S1130DD01092D0008091D3008F5F883018F48093F4
S1130DE0D30002C01092D3004091CF00440F416061
S1130DF04093CF006091D0008091D3000E94FD0009
S1130E000E94CD096DCF1092D3001092D1001092A0
S1130E10CF001093D40064CF80915C0184FF60CF35
S1130E204091CF0041110AC03092CF00432D609110
S1130E30D1008091D3000E940A0421C0440F409342
S1130E40CF006091D1008091D3000E940A04809168
S1130E50CF00811114C08091D1008F5F883018F4C5
S1130E608093D1000CC01092D1008091D3008F5F89
S1130E70883018F48093D30002C01092D3000E94EB
S1130E80CD092ECF1092CF00F092D40029CF8091BB
S1130E905C0184FF25CF8091CF000E94D201809114
S1130EA0CF008F5F883018F48093CF0002C0109277
S1130EB0CF008091CF000E94AA010E94CD0910CFDB
S1130EC01092CF00D092D4000BCF80915C0184FFAC
S1130ED007CF8091CF000E9417028091CF008F5FCF
S1130EE0883018F48093CF0002C01092CF00809114
S1130EF0CF000E94FF010E94CD09F2CE1092CF00D4
S1130F00C092D400EDCE80915C0184FFE9CE809143
S1130F10CF000E9446028091CF008F5F883018F482
S1130F208093CF0002C01092CF008091CF000E9426
S1130F302E020E94CD09D4CE1092CF008091CD0014
S1130F408A9D912D11249695292F220F920F891B8A
S1130F508093CD00B092D400C3CE80915C0184FF15
S1130F60BFCE8091CF0090E08830910508F05BC13E
S1130F70FC01EE57FF4F0C94880A0E94D300809125
S1130F80CF008F5F8093CF00422C0F2EF3E05F2EB3
S1130F90F02D622C0F2EF3E07F2EF02D822C0F2EDD
S1130FA0F3E09F2EF02D3FC10E94D3008091CD002D
S1130FB0882319F0813051F012C0E42C062D282D1D
S1130FC0452D672D892D0E94710211C0E42C062D38
S1130FD0282D452D672D892D0E94D00208C0E42CB0
S1130FE0062D282D452D672D892D0E9461039A9485
S1130FF07A945A948394639443948091CF008F5F3E
S11310008093CF0010C10E94D3008091CD0088232B
S113101019F0813051F012C0E42C062D282D452DF5
S1131020672D892D0E94710211C0E42C062D282DF4
S1131030452D672D892D0E94D00208C0E42C062D71
S1131040282D452D672D892D0E9461039A947A9449
S11310505A948394639443948091CF008F5F8093D8
S1131060CF00E1C00E94D3008091CD00882319F005
S1131070813051F012C0E42C062D282D452D672D0A
S1131080892D0E94710211C0E42C062D282D452DB6
S1131090672D892D0E94D00208C0E42C062D282D2E
S11310A0452D672D892D0E9461039A947A945A9450
S11310B08394639443948091CF008F5F8093CF0097
S11310C0B2C00E94D3008091CD00882319F08130F2
S11310D051F012C0E42C062D282D452D672D892DA5
S11310E00E94710211C0E42C062D282D452D672D78
S11310F0892D0E94D00208C0E42C062D282D452DF0
S1131100672D892D0E9461039394739453948A9458
S11311106A944A948091CF008F5F8093CF0083C0FC
S11311200E94D3008091CD00882319F0813051F0C2
S113113012C0E42C062D282D452D672D892D0E94E3
S1131140710211C0E42C062D282D452D672D892D03
S11311500E94D00208C0E42C062D282D452D672DB1
S1131160892D0E9461039394739453948A946A948E
S11311704A948091CF008F5F8093CF0054C00E9427
S1131180D3008091CD00882319F0813051F012C032
S1131190E42C062D282D452D672D892D0E947102E2
S11311A011C0E42C062D282D452D672D892D0E9474
S11311B0D00208C0E42C062D282D452D672D892D3D
S11311C00E9461039394739453948A946A944A9406
S11311D08091CF008F5F8093CF0025C00E94D30001
S11311E08091CD00882319F0813051F012C0E42C95
S11311F0062D282D452D672D892D0E94710211C0C1
S1131200E42C062D282D452D672D892D0E94D00212
S113121008C0E42C062D282D452D672D892D0E940C
S113122061031092CF000E94CD095ACD10925C0147
S11312308BE083BF89EF8CBF83E089BF0895E09181
S1131240D500F091D600309709F0099508951F92C2
S11312500F920FB60F9211242F933F934F935F93E6
S11312606F937F938F939F93AF93BF93EF93FF936A
S113127080915C01816080935C010E941F098091D0
S1131280660081508093660080916600811108C0D9
S113129080915C01826080935C0182E080936600AF
S11312A08091650081508093650080916500811173
S11312B008C080915C01846080935C0185E0809328
S11312C06500809164008150809364008091640083
S11312D081114CC080915C01886080935C018AE03C
S11312E080936400809163008150809363008091B7
S11312F0630081113BC080915C01806180935C013B
S11313008AE0809363008091620081508093620040
S11313108091620081112AC080915C018062809377
S11313205C018AE080936200809161008150809327
S1131330610080916100811119C080915C01806419
S113134080935C018AE08093610080916000815009
S11313508093600080916000811108C080915C01DD
S1131360806880935C0186E080936000FF91EF9138
S1131370BF91AF919F918F917F916F915F914F91A9
S11313803F912F910F900FBE0F901F901895809151
S11313905C018E7F80935C01089580915C018F7E57
S11313A080935C0108951F920F920FB60F9211243F
S11313B02F938F939F93EF93FF938BB12CB18C71E9
S11313C0E091D900EF5FEF719091D800E91739F0FF
S11313D0E093D900F0E0E452FF4F208301C082E0A3
S11313E09091D700892B8093D700FF91EF919F9123
S11313F08F912F910F900FBE0F901F9018951F92F1
S11314000F920FB60F9211248F939F93EF93FF9334
S11314109091DB008091DA00981761F0E091DA0096
S1131420EF5FEF71E093DA00F0E0E450FF4F80816A
S11314308CB901C05598FF91EF919F918F910F90B6
S11314400FBE0F901F9018951092DB001092DA00D7
S11314501092D9001092D800992314F422E02BB9E9
S1131460907890BD89B988E98AB986E880BD0895E5
S11314709091D9008091D8009817A9F09091D80044
S11314809F5F9F71E92FF0E0E452FF4F208180912C
S1131490D7009093D8001092D70090E0982F882717
S11314A0820F911D089580E091E008952091DB0062
S11314B02F5F2F719091DA002917E1F3E22FF0E00A
S11314C0E450FF4F80832093DB00559A0895CF9317
S11314D0DF93EC018881882331F021960E94560A1B
S11314E089918111FBCFDF91CF910895CF93DF9341
S11314F0EC012196FC018491882339F00E94560A5C
S1131500FE01849121968111F9CFDF91CF91089545
S1131510EE0FFF1F0590F491E02D0994F894FFCF8E
S1131520060A0A0A0A0502636C65617265640A00A8
S1131530006C617965723D000074633D0000546580
S11315407374204C45442D4375626520562E30310A
S11315500A00006466663D002073657420746F2081
S1131560004F433D310A004F433D300A004C45448F
S11315702D417272617920636C65617265640A0041
S10D158073657420006D75783D005A
S9030000FC
