:100000000C946D000C948A000C948A000C948A0065
:100010000C948A000C948A000C948A000C948A0038
:100020000C948A000C948A000C94EE0E0C948A00B6
:100030000C948A000C94A00F0C94CC0F0C948A00A2
:100040000C948A000C948A000C948A000C948A0008
:100050000C948A000C083E087308A808DD081209F1
:100060004709CD0AE70A010B1B0B300B4A0B640B47
:100070007D0B660D7A0D910DA50DB90DCD0D0F0EF1
:100080002A0E3E0E520E780E820E8C0E970EA20E87
:10009000AD0EB70EC10ECB0ED40E427566666572FC
:1000A000206F766572666C6F77206572726F723A38
:1000B000200055415254204F76657272756E20456E
:1000C00072726F723A200055415254204672616D2F
:1000D00065204572726F723A200011241FBECFE571
:1000E000D8E0DEBFCDBF10E0A0E6B0E0ECE8F2E281
:1000F00002C005900D92A639B107D9F721E0A6E913
:10010000B0E001C01D92AC32B207E1F70E94DE0000
:100110000C9444110C940000813041F018F08230AE
:1001200039F00895DC9A0000DC980895DB9A089570
:10013000DB980895CF93DF930E940510EC01882788
:10014000892B11F48C2F19C0D0FD14C0D4FF04C02A
:1001500087EC90E00E944310D3FF04C082EB90E054
:100160000E944310D1FF08C08AE990E00E9443102A
:1001700080E003C080E001C080E0DF91CF9108956E
:100180000E949A00883649F0883781F08F33A9F4AD
:100190008BE690E00E94341008950E943F0D0E946B
:1001A00024018AE790E00E943410089580E00E94C4
:1001B000480D82E890E00E94341008952FEF82E508
:1001C00097E0215080409040E1F700C000000E947D
:1001D00097068CE890E00E9402060E94DD0E87E6FA
:1001E00090E80E94F10F78948BE690E00E94341022
:1001F0008AB38C618ABB8BB3837E8BBB80E00E9409
:10020000480D0E94C0008091E00080FF04C00E9461
:1002100016060E948E0F8091E00083FF04C00E94AA
:100220006C0E0E94940F8091E00084FFEACF0E9440
:100230009A0FE7CFFC012081FB013081321718F4BF
:100240002083FC012083089540E050E070E060E0EE
:100250000FC0F901E80FF91FEF51FF4F108201960F
:1002600088309105B1F74F5F5F4F4830510551F02D
:10027000872F962F9A01220F331F220F331F220F31
:10028000331FE7CF0895883038F4683038F481E0C0
:10029000483028F080E0089580E0089580E00895D7
:1002A0001F93CF93DF93C82F162FD42F0E944301A3
:1002B0008823A1F0E12FF0E088E0D89FE00DF11D48
:1002C0001124EF51FF4F408121E030E0C90102C00D
:1002D000880F991FCA95E2F7842B8083DF91CF9115
:1002E0001F9108951F93CF93DF93C82F162FD42FFC
:1002F0000E9443018823A9F0E12FF0E088E0D89F15
:10030000E00DF11D1124EF51FF4F408121E030E05D
:10031000C90102C0880F991FCA95E2F7809584230E
:100320008083DF91CF911F9108951F93CF93DF9327
:10033000C82F162FD42F0E944301882399F0E12F54
:10034000F0E088E0D89FE00DF11D1124EF51FF4F40
:10035000208130E0C90102C095958795CA95E2F7E2
:10036000817001C080E0DF91CF911F9108958830A6
:1003700028F571E001C0770F8A95EAF740E050E078
:10038000B0E0A0E011C0F901E80FF91FEF51FF4FF5
:100390006081672B6083019688309105A1F74F5FDC
:1003A0005F4F4830510551F08B2F9A2F9A01220F41
:1003B000331F220F331F220F331FE5CF08958830DC
:1003C00050F521E030E0A90102C0440F551F8A9585
:1003D000E2F7742F709540E050E0B0E0A0E011C06B
:1003E000F901E80FF91FEF51FF4F60816723608328
:1003F000019688309105A1F74F5F5F4F4830510556
:1004000051F08B2F9A2F9A01220F331F220F331F87
:10041000220F331FE5CF08958830A8F420E030E0A4
:1004200090E04FEFF901EE0FFF1FEE0FFF1FEE0FF1
:10043000FF1FE80FF91FEF51FF4F40832F5F3F4F22
:100440002830310579F708958830A0F420E030E0B5
:1004500090E0F901EE0FFF1FEE0FFF1FEE0FFF1FE1
:10046000E80FF91FEF51FF4F10822F5F3F4F2830E9
:10047000310579F708958830A8F420E030E090E065
:10048000880F991F880F991F880F991F4FEFFC0144
:10049000E20FF31FEF51FF4F40832F5F3F4F283094
:1004A0003105A9F708958830A0F420E030E090E00D
:1004B000880F991F880F991F880F991FFC01E20F61
:1004C000F31FEF51FF4F10822F5F3F4F2830310550
:1004D000A9F70895EF92FF920F931F93CF93DF93A5
:1004E000662314F4CFEF01C0C1E0813089F120F020
:1004F000823009F46DC0CDC040E050E0A0E070E073
:100500001DC0C13049F4F901E80FF91FEF51FF4F49
:100510006081660F608308C0F901E80FF91FEF5191
:10052000FF4F60816695608301968830910549F799
:100530004F5F5F4F4830510509F4ABC08A2F972FAA
:100540009A01220F331F220F331F220F331FD9CFDF
:10055000A0E0B0E000E010E0C13059F4FD01EE0F82
:10056000FF1FEE0FFF1FEE0FFF1FEF51FF4F108217
:100570002AC0202F312FEA2EFB2EBD01660F771FD8
:10058000660F771F660F771F4E2D5F2DC9010196ED
:10059000FB01E80FF91FEF51FF4FD081260F371FE6
:1005A000F901EF51FF4FD0838730910511F09C0185
:1005B000EBCFFA01EE0FFF1FEE0FFF1FEE0FFF1F35
:1005C000EF51FF4F17821196A830B10529F661C08F
:1005D000C13029F061E070E0C0E0B0E044C066E006
:1005E00070E0C0E0B0E013C0FA01E80FF91FEF516E
:1005F000FF4FA081F901E80FF91FEF51FF4FA083D2
:1006000001968830910581F76150710998F08C2F1F
:100610009B2FAB01440F551F440F551F440F551F0F
:100620009B012F5F3F4F220F331F220F331F220FDB
:10063000331FDACF80E00E9453022BC0FA01E80F8B
:10064000F91FEF51FF4FA081F901E80FF91FEF519A
:10065000FF4FA08301968830910581F76F5F7F4F30
:100660006830710599F08C2F9B2FAB01440F551FFB
:10067000440F551F440F551F9B0121503109220F74
:10068000331F220F331F220F331FD8CF87E00E9462
:100690005302DF91CF911F910F91FF90EF9008953A
:1006A0001F93CF93DF93182FD62FC0E04D2F612FCC
:1006B0008C2F0E945001CF5FC830C1F7DF91CF91DE
:1006C0001F9108951F93CF93DF93182FD62FC0E06B
:1006D0004D2F612F8C2F0E947201CF5FC830C1F760
:1006E000DF91CF911F9108956F5F2FEF30E0A90147
:1006F00002C0440F551F6A95E2F7BA016095A9013F
:1007000002C0440F551F8A95E2F7CA018623089557
:10071000BF92CF92DF92EF92FF920F931F93CF93EE
:10072000DF9300D000D000D0CDB7DEB789836A83D5
:100730004B832C830D83EE82BE016C5F7F4FCE0115
:1007400001960E941A01BE016B5F7F4FCE01029697
:100750000E941A01BE016A5F7F4FCE0103960E947C
:100760001A010B81EE80E01610F1FA801D81BC8029
:10077000C980DF2C1F15C0F06B2D8C2D0E947403D7
:100780009D2D202F30E0220F331F220F331F220F09
:10079000331FF901E90FF11DEF51FF4F4081482B45
:1007A00040839F5F1917A8F70F5FE01618F726968A
:1007B0000FB6F894DEBF0FBECDBFDF91CF911F9172
:1007C0000F91FF90EF90DF90CF90BF9008954F92E0
:1007D0005F926F927F928F929F92AF92BF92CF92D1
:1007E000DF92EF92FF920F931F93CF93DF9300D08E
:1007F00000D000D0CDB7DEB789836A834B832C83CA
:100800000D83EE82BE016C5F7F4FCE0101960E9488
:100810001A01BE016B5F7F4FCE0102960E941A0142
:10082000BE016A5F7F4FCE0103960E941A017B8052
:100830006E80671408F445C0AA80CD8099808C80B2
:1008400081E090E09C01082C02C0220F331F0A9423
:10085000E2F7092C02C0880F991F0A94E2F7522E82
:10086000582AB72C4A2CCA1448F1D42CEB2CF12C62
:10087000EE0CFF1CEE0CFF1CEE0CFF1CDA1431F02A
:10088000CD1421F0B71411F06B100DC00D2D10E038
:10089000682D892D0E947403F801EE0DFF1DEF51A4
:1008A000FF4F808308C0F701ED0DF11DEF51FF4FA1
:1008B000808185298083D394CD1400F7B3946B1481
:1008C00090F626960FB6F894DEBF0FBECDBFDF912F
:1008D000CF911F910F91FF90EF90DF90CF90BF903D
:1008E000AF909F908F907F906F905F904F90089502
:1008F000DF92EF92FF920F931F93CF93DF9300D07D
:1009000000D000D0CDB7DEB789836A834B832C83B8
:100910000D83EE82BE016C5F7F4FCE0101960E9477
:100920001A01BE016B5F7F4FCE0102960E941A0131
:10093000BE016A5F7F4FCE0103960E941A01EB80D1
:10094000F12CDA800D2D10E06C8189810E947403F6
:10095000A701440F551F440F551F440F551FFA019F
:10096000E00FF11FEF51FF4F80839D81292F30E071
:10097000420F531FFA01EF51FF4F80834E8150E029
:10098000440F551F440F551F440F551F040F151FCB
:10099000F801EF51FF4F8083240F351FF901EF510C
:1009A000FF4F80839D15C0F04B816D2D89810E9482
:1009B00050014E816D2D89810E9450014B816D2D1A
:1009C0008C810E9450014E816D2D8C810E945001BE
:1009D000D3948D818D1540F71B818E818117C0F0D6
:1009E000412F6A8189810E945001412F6D81898147
:1009F0000E945001412F6A818C810E945001412F39
:100A00006D818C810E9450011F5F8E81811740F79C
:100A100026960FB6F894DEBF0FBECDBFDF91CF9103
:100A20001F910F91FF90EF90DF9008953F924F92AA
:100A30005F926F927F928F929F92AF92BF92CF926E
:100A4000DF92EF92FF920F931F93CF93DF93522F7A
:100A5000581B302F361B9E2D941BC52FDD27C7FD3D
:100A6000D095DD231CF4D195C195D109CC0FDD1FA4
:100A7000FC2FC32EDD24C7FCD094DD201CF4D194C0
:100A8000C194D108CC0CDD1CEC2DA92EBB24A7FCF5
:100A9000B094BB201CF4B194A194B108AA0CBB1C67
:100AA0007A2D552334F077247394151624F0712C85
:100AB00002C077247A94332334F0662463941316A7
:100AC00024F0612C02C066246A94992334F05524E2
:100AD0005394191624F0512C02C055245A94F82E20
:100AE000962E842E8C2DE7170CF48A2DF8172CF1F6
:100AF0004C2C8C2F8595C81A3A2CA81A022F10E07E
:100B0000B82CDF2C482D692D8F2D0E9450018F2D80
:100B1000992787FD90958017910709F461C0CC2033
:100B200014F0960CCC1AAA201CF08B2C850CAC1A55
:100B3000FD2CF70CC40CA30CE3CF8C2FF7170CF48F
:100B40008A2DE8171CF14C2E8C2D8595C81B3A2C4C
:100B5000A81A10E0E82CD92D482D692D8F2D0E9460
:100B60005001892D992787FD909580179107C1F134
:100B7000CC2314F0F70CCC19AA201CF08E2C850C79
:100B8000AC189D2E960CC40DA30CE4CF8C2FCE1761
:100B90000CF48C2D781724F14C2E8A2D8595C81BCA
:100BA0003C2CC81A0E2D10E0D82DE92C482D692DAB
:100BB0008F2D0E945001882D992787FD90958017D1
:100BC000910771F0CC2314F0F70CCA19CC201CF05B
:100BD0009E2C960CCA188D2E850CC40DC30CE4CF28
:100BE000DF91CF911F910F91FF90EF90DF90CF9009
:100BF000BF90AF909F908F907F906F905F904F903D
:100C00003F9008959093970080939600089568BB55
:100C1000000021E030E0A90102C0440F551F8A9571
:100C2000E2F745BB000015BA000008950F931F932B
:100C3000CF93DF93E0919600F0919700309711F0F9
:100C400081E009959798939A82B38F7882BB8091BF
:100C5000980090E00196877090788093980080913A
:100C60009800811150C0E0919600F0919700309764
:100C700009F449C0099547C0C8010C2E02C0880F6D
:100C8000991F0A94E2F7807F992718161906A4F491
:100C900080919800FE0138E0839FE00DF11D112442
:100CA000EF51FF4F808198E08795661F9A95E1F795
:100CB0008C2F0E9407060EC080919800FE0198E0DC
:100CC000899FE00DF11D1124EF51FF4F60818C2FA2
:100CD0000E9407062196C830D10571F618BA22B3D2
:100CE0008091980030E1839FC0011124822B82BB48
:100CF0009398979AE0919600F0919700309741F081
:100D000082E0099505C0C0E0D0E001E010E0B4CF7A
:100D1000DF91CF911F910F91089518BA00008FEFC6
:100D200085BB0000000015BA000018BA08958FEFC7
:100D300087BB18BA84BB15BA81B3886F81BB9798FB
:100D4000939A82B38F7882BB0E948D06089580911A
:100D50002901882321F08150809329010895409131
:100D6000250160912801809121010E9472018091EA
:100D70002A0182FD39C080912101873050F48F5FB4
:100D80008093210140912501609128010E9450012A
:100D900065C01092210160912801673048F46F5FAF
:100DA000609328014091250180E00E94500156C0C7
:100DB0001092280140912501473040F44F5F409345
:100DC000250160E080E00E94500148C087E08093E8
:100DD00021018093280167E00E945001EAE2F1E0DE
:100DE0008081846080833AC080912101882351F002
:100DF00081508093210140912501609128010E943A
:100E000050012CC087E08093210160912801662366
:100E100041F0615060932801409125010E945001EA
:100E20001DC087E08093280140912501442339F0BB
:100E300041504093250167E00E9450010FC040E0FF
:100E400067E087E00E945001EAE2F1E080818B7F59
:100E50008083EBE2F1E080818150808380912401E6
:100E600080932901089580912901882321F08150E0
:100E700080932901089580912A0182958695877033
:100E800090E082309105F1F12CF4009769F0019720
:100E900001F197C08430910509F462C00CF447C099
:100EA000059709F472C08DC0809121010E94DF0175
:100EB00080912101873030F48F5F809321010E945F
:100EC000B7017FC0EAE2F1E080818F7180628083A8
:100ED00078C0809121010E94DF0180912101882347
:100EE00031F08150809321010E94B7016AC0EAE28B
:100EF000F1E080818F7180648083809128010E945D
:100F00000C025FC0809128010E9424028091280178
:100F1000873030F48F5F809328010E940C0251C00B
:100F2000EAE2F1E080818F71806680834AC080911F
:100F300028010E94240280912801882331F08150E9
:100F4000809328010E940C023CC0EAE2F1E080811B
:100F50008F7180688083809125010E943B0231C09F
:100F6000809125010E94530280912501873030F441
:100F70008F5F809325010E943B0223C0EAE2F1E0EB
:100F800080818F71806A80831CC0809125010E94BE
:100F9000530280912501882331F0815080932501EF
:100FA0000E943B020EC0EAE2F1E080818F718083F3
:100FB000809121010E94B701EBE2F1E08081815034
:100FC000808380912401809329010895EF920F93EB
:100FD000CF93C82F90912901992321F0915090939C
:100FE00029018BC1E0912A01E295E695E770F0E0D6
:100FF0003197E730F10520F4E65DFF4F0C9469105E
:101000000E942401EAE2F1E08081982F907E905EB8
:101010008F71892B80836DC10E942401C13079F0CA
:1010200018F0C230B9F020C06894EE24E2F804E071
:1010300024E043E063E083E00E94880315C06894E5
:10104000EE24E2F804E024E043E063E083E00E9461
:10105000E7030AC06894EE24E2F804E024E043E0E9
:1010600063E083E00E947804EAE2F1E08081982F57
:10107000907E905E8F71892B80833BC10E942401FA
:10108000C13081F018F0C230C9F023C00F2EF5E056
:10109000EF2EF02D05E025E042E062E082E00E94C4
:1010A000880317C00F2EF5E0EF2EF02D05E025E0A8
:1010B00042E062E082E00E94E7030BC00F2EF5E001
:1010C000EF2EF02D05E025E042E062E082E00E9494
:1010D0007804EAE2F1E08081982F907E905E8F7133
:1010E000892B808306C10E942401C13081F018F051
:1010F000C230C9F023C00F2EF6E0EF2EF02D06E02F
:1011000026E041E061E081E00E94880317C00F2ED5
:10111000F6E0EF2EF02D06E026E041E061E081E010
:101120000E94E7030BC00F2EF6E0EF2EF02D06E035
:1011300026E041E061E081E00E947804EAE2F1E02B
:101140008081982F907E905E8F71892B8083D1C093
:101150000E942401C13081F018F0C230C9F023C0D0
:101160000F2EF7E0EF2EF02D07E027E040E060E0E3
:1011700080E00E94880317C00F2EF7E0EF2EF02DBD
:1011800007E027E040E060E080E00E94E7030BC05A
:101190000F2EF7E0EF2EF02D07E027E040E060E0B3
:1011A00080E00E947804EAE2F1E08081982F907E4E
:1011B000905E8F71892B80839CC00E942401C13076
:1011C00081F018F0C230C9F023C00F2EF6E0EF2EE8
:1011D000F02D06E026E041E061E081E00E94880316
:1011E00017C00F2EF6E0EF2EF02D06E026E041E0CE
:1011F00061E081E00E94E7030BC00F2EF6E0EF2EC6
:10120000F02D06E026E041E061E081E00E947804F4
:10121000EAE2F1E08081982F907E905E8F71892BB9
:10122000808367C00E942401C13081F018F0C23071
:10123000C9F023C00F2EF5E0EF2EF02D05E025E0DC
:1012400042E062E082E00E94880317C00F2EF5E0C2
:10125000EF2EF02D05E025E042E062E082E00E9402
:10126000E7030BC00F2EF5E0EF2EF02D05E025E093
:1012700042E062E082E00E947804EAE2F1E08081EC
:10128000982F907E905E8F71892B808332C00E9450
:101290002401C13079F018F0C230B9F020C0689450
:1012A000EE24E2F804E024E043E063E083E00E94FF
:1012B000880315C06894EE24E2F804E024E043E0DB
:1012C00063E083E00E94E7030AC06894EE24E2F83A
:1012D00004E024E043E063E083E00E947804EAE273
:1012E000F1E080818F718083EBE2F1E080818150B9
:1012F00080838091240180932901CF910F91EF90F9
:101300000895CF93DF9380912901882321F08150A4
:10131000809329014AC06FEF82E00E946A028091A7
:101320002B0190E060912A0162956695677070E0EC
:101330000E945510892B81F50E94D11065E070E064
:101340000E9455108093250110922701882321F1D6
:101350000E94D110EC010E94D110BE01677070781C
:10136000772334F461507109686F7F6F6F5F7F4F2F
:1013700087709078992324F40197886F9F6F019666
:1013800047E00E945001809127018F5F80932701E1
:10139000909125018917E0F2EBE2F1E08081815024
:1013A00080838091240180932901DF91CF9108955A
:1013B0000F931F93CF93DF9380912901882321F00E
:1013C000815080932901D2C00E94240180912A017A
:1013D00082958695877090E08130910509F462C00E
:1013E0008230910509F4B7C0892B09F0BBC0109277
:1013F000270120912801222389F10E94D1108C011C
:101400000E94D110EC010E94D110A80147705078C1
:10141000552334F441505109486F5F6F4F5F5F4F60
:10142000BE0167707078772334F461507109686F7A
:101430007F6F6F5F7F4F87709078992324F40197B7
:10144000886F9F6F01960E945001809127018F5FE6
:101450008093270120912801821778F28091220140
:101460009091230101979093230180932201892B6E
:1014700009F078C08091250190E09093230180933A
:1014800022012F5F2093280180912101281708F461
:1014900069C080932801EAE2F1E080818F71806267
:1014A000808360C01092270120912801222389F1B6
:1014B0000E94D1108C010E94D110EC010E94D11029
:1014C000A80147705078552334F441505109486FB2
:1014D0005F6F4F5F5F4FBE0167707078772334F4A2
:1014E00061507109686F7F6F6F5F7F4F8770907871
:1014F000992324F40197886F9F6F01960E945001F1
:10150000809127018F5F8093270120912801821706
:1015100078F2809122019091230101979093230109
:1015200080932201892BF1F48091250190E0909322
:101530002301809322012150223018F020932801AA
:1015400011C081E080932801EAE2F1E080818F718F
:101550008064808307C00E942401EBE2F1E0808177
:10156000815080838091240180932901DF91CF9164
:101570001F910F91089580912901882321F08150B6
:10158000809329010895E0912A01E295E695E7709C
:10159000F0E0EF5CFF4F0C946910609125018091A1
:1015A00028010E94500380912801873020F48F5F2A
:1015B00080932801BEC0809125018F5F8093250113
:1015C000EAE2F1E080818F7180628083B2C0609135
:1015D0002501809128010E945003809125018730C8
:1015E00020F48F5F80932501A4C080912801815051
:1015F00080932801EAE2F1E080818F71806480832A
:1016000098C060912501809128010E94500380912B
:101610002801882321F08150809328018AC080917D
:101620002501815080932501EAE2F1E080818F71EC
:10163000806680837EC060912501809128010E9490
:10164000500380912501882321F08150809325014A
:1016500070C0EAE2F1E080818F718068808369C0A8
:1016600060912501809128010E94620380912801E8
:10167000873020F48F5F809328015BC08091250123
:101680008F5F80932501EAE2F1E080818F71806AAB
:1016900080834FC060912501809128010E946203E0
:1016A00080912501873020F48F5F8093250141C010
:1016B00080912801815080932801EAE2F1E0808145
:1016C0008F71806C808335C06091250180912801E5
:1016D0000E94620380912801882321F08150809329
:1016E000280127C080912501815080932501EAE2DD
:1016F000F1E08081806E80831CC060912501809123
:1017000028010E94620380912501882321F08150E5
:10171000809325010EC01092280110922501EAE263
:10172000F1E080818F718083EBE2F1E08081815074
:10173000808380912401809329010895809129015B
:10174000882321F0815080932901089580912A01F6
:1017500082958695877090E0009721F0019709F4B3
:1017600053C0A7C08091220190912301823C9140F7
:1017700008F03FC00E94D11087709078992324F41C
:101780000197886F9F6F0196809321010E94D1106D
:1017900087709078992324F40197886F9F6F019642
:1017A000809328010E94D11087709078992324F4A7
:1017B0000197886F9F6F019680932501482F609154
:1017C0002801809121010E9495018111D3CF409180
:1017D000250160912801809121010E945001809192
:1017E000220190912301019690932301809322017D
:1017F00060C01092230110922201EAE2F1E08081A0
:101800008F718062808355C0809122019091230165
:101810008D3B914008F03FC00E94D11087709078B6
:10182000992324F40197886F9F6F0196809321017B
:101830000E94D11087709078992324F40197886FC3
:101840009F6F0196809328010E94D1108770907835
:10185000992324F40197886F9F6F01968093250147
:10186000482F60912801809121010E9495018130CB
:1018700099F64091250160912801809121010E94F3
:10188000720180912201909123010196909323018E
:10189000809322010EC01092230110922201EAE2ED
:1018A000F1E080818F718083EBE2F1E080818150F3
:1018B000808380912401809329010895EF920F93F2
:1018C00080912901882321F0815080932901D4C07F
:1018D00080912A0182958695877090E081309105EC
:1018E000D1F11CF4892B49F0C3C08230910509F471
:1018F00060C0039709F48DC0BBC00E942401109200
:10190000270180E0E090250107E0282F40E060916A
:1019100028010E941605809127018F5F809327017F
:10192000883080F3809128018F5F80932801909107
:1019300025019F5F90932501883008F499C0EAE261
:10194000F1E080818F71806280831092250187E0B1
:10195000809328018DC00E9424011092270180E00D
:10196000E090250107E0282F47E0609128010E94C0
:101970001605809127018F5F80932701883080F3BF
:1019800080912801815080932801809125018F5FEB
:1019900080932501883008F46BC0EAE2F1E0808191
:1019A0008F718064808387E0809325018093280174
:1019B0005FC00E9424011092270180E00F2EF7E003
:1019C000EF2EF02D00912801282F4091250160E095
:1019D0000E941605809127018F5F80932701883030
:1019E00068F380912801815080932801809125011E
:1019F0008150809325018830D8F5EAE2F1E08081BA
:101A00008F718066808387E0809325011092280182
:101A10002FC00E9424011092270180E0E12C009148
:101A20002801282F4091250160E00E941605809131
:101A300027018F5F80932701883080F380912801F0
:101A40008F5F8093280190912501915090932501FB
:101A5000883048F0EAE2F1E080818F718083109253
:101A6000250110922801EBE2F1E080818150808312
:101A700080912401809329010F91EF900895109295
:101A80002A0185E0809324018AE08093260108954D
:101A9000CF93DF93C82F0E943F0DC09326010E9471
:101AA00024018BE890E00E9434108C2F0E942310B8
:101AB0008AE00E9423108C2F90E08A30910508F074
:101AC00008C1FC01E75CFF4F0C94691010922101E2
:101AD000109228011092250181E080932B0140E0B3
:101AE00060E080E00E94500182E0809324018093B6
:101AF0002901EFC0109221011092280110922501B6
:101B000083E080932B0180E00E94B701EAE2F1E0DC
:101B100080818F71808387E08093240180932901E5
:101B2000D8C010922101109228011092250182E064
:101B300080932B01EAE2F1E080818F71808387E05E
:101B40008093240180932901C4C010922101109236
:101B500028011092250182E080932B01EAE2F1E056
:101B600080818F71808387E0809324018093290195
:101B7000B0C010922101109228011092250182E03C
:101B800080932B01EAE2F1E080818F71808387E00E
:101B900080932401809329019CC01092250120C0CC
:101BA0000E94D110EC010E94D110BE0167707078C4
:101BB000772334F461507109686F7F6F6F5F7F4FD7
:101BC00087709078992324F40197886F9F6F01960E
:101BD00047E00E945001809125018F5F809325018D
:101BE000C0912501D0E00E94D11083709078992394
:101BF00024F401978C6F9F6F0196C817D90784F260
:101C000084E680932B01EAE2F1E080818F718064A9
:101C100080838AE080932401809329015AC094E153
:101C20009093210181E08093280185E08093250134
:101C300090932B01EAE2F1E090819F719083809371
:101C400024018093290185E090E090932301809303
:101C500022013FC01092210110922801109225010B
:101C600082E080932B01EAE2F1E080818F71808332
:101C700085E080932401809329012BC010922101DB
:101C8000109228011092250181E080932B01EAE255
:101C9000F1E080818F71808382E0809324018093C2
:101CA000290117C0109221011092280110922501DC
:101CB00084E080932B01EAE2F1E080818F718083E0
:101CC00084E68093240180932901109223011092CD
:101CD0002201DF91CF9108958091260190E08A3012
:101CE000910508F069C0FC01ED5BFF4F0C94691091
:101CF0000E94A70680912B0181115EC081E00E94A5
:101D0000480D08950E94330780912B01811154C022
:101D100082E00E94480D089582E00E94E6078091CB
:101D20002B01811149C083E00E94480D089581E094
:101D30000E94E60780912B0181113EC084E00E9441
:101D4000480D089580E00E94E60780912B018111E3
:101D500033C085E00E94480D08950E94810980915A
:101D60002B01811129C086E00E94480D08950E9430
:101D7000D80980912B0181111FC087E00E94480D76
:101D800008950E94BB0A80912B01811115C088E043
:101D90000E94480D08950E949E0B80912B01811195
:101DA0000BC00E94480D08950E945E0C80912B018B
:101DB000811102C00E94480D08951092E0008BE04E
:101DC00083BF89EF8CBF83E089BF0895E0919900BC
:101DD000F0919A00309709F0099508951F920F929B
:101DE0000FB60F9211242F933F934F935F936F93EE
:101DF0007F938F939F93AF93BF93EF93FF938091C4
:101E0000E00081608093E0000E94E60E80916A000D
:101E1000815080936A0080916A00811108C080918E
:101E2000E00082608093E00082E080936A0080910D
:101E3000690081508093690080916900811108C018
:101E40008091E00084608093E00085E080936900E9
:101E500080916800815080936800809168008111B2
:101E60004CC08091E00088608093E0008AE080931D
:101E700068008091670081508093670080916700BF
:101E800081113BC08091E00080618093E0008AE096
:101E900080936700809166008150809366008091F6
:101EA000660081112AC08091E00080628093E0008A
:101EB0008AE0809366008091650081508093650080
:101EC00080916500811119C08091E0008064809349
:101ED000E0008AE0809365008091640081508093E7
:101EE000640080916400811108C08091E0008068E6
:101EF0008093E00086E080936400FF91EF91BF91B2
:101F0000AF919F918F917F916F915F914F913F9191
:101F10002F910F900FBE0F901F9018958091E000A9
:101F20008E7F8093E00008958091E000877F80930A
:101F3000E00008958091E0008F7E8093E000089596
:101F40001F920F920FB60F9211242F938F939F938E
:101F5000EF93FF938BB12CB18C71E0919D00EF5FFB
:101F6000EF7190919C00E91739F0E0939D00F0E04B
:101F7000E056FF4F208301C082E090919B00892BA7
:101F800080939B00FF91EF919F918F912F910F90E4
:101F90000FBE0F901F9018951F920F920FB60F92C1
:101FA00011248F939F93EF93FF9390919F008091C3
:101FB0009E00981761F0E0919E00EF5FEF71E09353
:101FC0009E00F0E0E054FF4F80818CB901C055982D
:101FD000FF91EF919F918F910F900FBE0F901F90E7
:101FE000189510929F0010929E0010929D001092E2
:101FF0009C00992314F422E02BB9907890BD89B904
:1020000088E98AB986E880BD089590919D00809105
:102010009C009817A9F090919C009F5F9F71E92FF9
:10202000F0E0E056FF4F208180919B0090939C0050
:1020300010929B0090E0982F8827820F911D0895A1
:1020400080E091E0089520919F002F5F2F71909183
:102050009E002917E1F3E22FF0E0E054FF4F808368
:1020600020939F00559A0895CF93DF93EC018881C8
:10207000882331F021960E94231089918111FBCF92
:10208000DF91CF910895CF93DF93EC012196FC016E
:102090008491882339F00E942310FE0184912196B7
:1020A0008111F9CFDF91CF91089597FB072E16F498
:1020B000009407D077FD09D00E946F1007FC05D06F
:1020C0003EF4909581959F4F0895709561957F4F4F
:1020D0000895EE0FFF1F0590F491E02D0994AA1BBF
:1020E000BB1B51E107C0AA1FBB1FA617B70710F003
:1020F000A61BB70B881F991F5A95A9F78095909535
:10210000BC01CD0108958F929F92AF92BF92CF9262
:10211000DF92EF92FF92CF93DF93EC016881798198
:102120008A819B81611571058105910521F464E225
:1021300079ED8BE597E02DE133EF41E050E00E942F
:10214000E11049015A019B01AC01A7EAB1E40E94E8
:1021500000116B017C01ACEEB4EFA50194010E946B
:102160000E11C60ED71EE81EF91EF7FE06C081E04E
:10217000C81AD108E10880E8F80AC882D982EA8240
:10218000FB82C6019F77DF91CF91FF90EF90DF90A8
:10219000CF90BF90AF909F908F9008950E94831032
:1021A000089580E690E00E9483100895A0E0B0E0DA
:1021B0008093600090936100A0936200B0936300ED
:1021C0000895052E97FB1EF400940E94F81057FD09
:1021D00007D00E94131107FC03D04EF40C94F810A2
:1021E00050954095309521953F4F4F4F5F4F089543
:1021F00090958095709561957F4F8F4F9F4F089573
:102200000E943511A59F900DB49F900DA49F800D45
:10221000911D11240895B7FF0C9400110E94001124
:10222000821B930B0895A1E21A2EAA1BBB1BFD0172
:102230000DC0AA1FBB1FEE1FFF1FA217B307E407A5
:10224000F50720F0A21BB30BE40BF50B661F771FFD
:10225000881F991F1A9469F76095709580959095DD
:102260009B01AC01BD01CF010895A29FB001B39FB6
:10227000C001A39F700D811D1124911DB29F700D8F
:0C228000811D1124911D0895F894FFCFDA
:10228C0001000000060A0A0A0A05024C45442D43C7
:10229C0075626520562E30310A0068616C74656475
:1022AC000A00737461727465640A007374617274E9
:0622BC00696E67200000BE
:00000001FF
